{
  "transactions": [
    {
      "hash": "0x450d64d4712ef329341d0a5305aa1ec96c0a97583756486b9ffe97b2c0efa26e",
      "transactionType": "CALL",
      "contractName": null,
      "contractAddress": "0x779877a7b0d9e8603169ddbd7836e478b4624789",
      "function": "transferAndCall(address,uint256,bytes)",
      "arguments": [
        "0x9DdfaCa8183c41ad55329BdeeD9F6A8d53168B1B",
        "3000000000000000000",
        "0xf8188f9d9488fdc36baaee77f396d419b3d64b227741824bf90c95fa8a743675"
      ],
      "transaction": {
        "from": "0xf8c3c0407f2fa1c449db000f612816641a9fdb8c",
        "to": "0x779877a7b0d9e8603169ddbd7836e478b4624789",
        "gas": "0x1c1ff",
        "value": "0x0",
        "input": "0x4000aea00000000000000000000000009ddfaca8183c41ad55329bdeed9f6a8d53168b1b00000000000000000000000000000000000000000000000029a2241af62c000000000000000000000000000000000000000000000000000000000000000000600000000000000000000000000000000000000000000000000000000000000020f8188f9d9488fdc36baaee77f396d419b3d64b227741824bf90c95fa8a743675",
        "nonce": "0x16",
        "chainId": "0xaa36a7"
      },
      "additionalContracts": [],
      "isFixedGasLimit": false
    }
  ],
  "receipts": [
    {
      "status": "0x1",
      "cumulativeGasUsed": "0x112c45b",
      "logs": [
        {
          "address": "0x779877a7b0d9e8603169ddbd7836e478b4624789",
          "topics": [
            "0xddf252ad1be2c89b69c2b068fc378daa952ba7f163c4a11628f55a4df523b3ef",
            "0x000000000000000000000000f8c3c0407f2fa1c449db000f612816641a9fdb8c",
            "0x0000000000000000000000009ddfaca8183c41ad55329bdeed9f6a8d53168b1b"
          ],
          "data": "0x00000000000000000000000000000000000000000000000029a2241af62c0000",
          "blockHash": "0x6d43977040914be0d5dbd18de67920936096967e6293a29f5e41dfd87e8b83ae",
          "blockNumber": "0x888378",
          "blockTimestamp": "0x68973510",
          "transactionHash": "0x450d64d4712ef329341d0a5305aa1ec96c0a97583756486b9ffe97b2c0efa26e",
          "transactionIndex": "0xbb",
          "logIndex": "0x1c3",
          "removed": false
        },
        {
          "address": "0x779877a7b0d9e8603169ddbd7836e478b4624789",
          "topics": [
            "0xe19260aff97b920c7df27010903aeb9c8d2be5d310a2c67824cf3f15396e4c16",
            "0x000000000000000000000000f8c3c0407f2fa1c449db000f612816641a9fdb8c",
            "0x0000000000000000000000009ddfaca8183c41ad55329bdeed9f6a8d53168b1b"
          ],
          "data": "0x00000000000000000000000000000000000000000000000029a2241af62c000000000000000000000000000000000000000000000000000000000000000000400000000000000000000000000000000000000000000000000000000000000020f8188f9d9488fdc36baaee77f396d419b3d64b227741824bf90c95fa8a743675",
          "blockHash": "0x6d43977040914be0d5dbd18de67920936096967e6293a29f5e41dfd87e8b83ae",
          "blockNumber": "0x888378",
          "blockTimestamp": "0x68973510",
          "transactionHash": "0x450d64d4712ef329341d0a5305aa1ec96c0a97583756486b9ffe97b2c0efa26e",
          "transactionIndex": "0xbb",
          "logIndex": "0x1c4",
          "removed": false
        },
        {
          "address": "0x9ddfaca8183c41ad55329bdeed9f6a8d53168b1b",
          "topics": [
            "0x1ced9348ff549fceab2ac57cd3a9de38edaaab274b725ee82c23e8fc8c4eec7a",
            "0xf8188f9d9488fdc36baaee77f396d419b3d64b227741824bf90c95fa8a743675"
          ],
          "data": "0x000000000000000000000000000000000000000000000000000000000000000000000000000000000000000000000000000000000000000029a2241af62c0000",
          "blockHash": "0x6d43977040914be0d5dbd18de67920936096967e6293a29f5e41dfd87e8b83ae",
          "blockNumber": "0x888378",
          "blockTimestamp": "0x68973510",
          "transactionHash": "0x450d64d4712ef329341d0a5305aa1ec96c0a97583756486b9ffe97b2c0efa26e",
          "transactionIndex": "0xbb",
          "logIndex": "0x1c5",
          "removed": false
        }
      ],
      "logsBloom": "0x00000004000000000000000000000000000000000020000000000000020000000000000000000000000000000000000200000000000000000000000000000000000000000000000000000008000000000000000000000000000020000020000408000000000000000000000000000000000000000000800000000010000040000000040000000000000000010000800000000020000000000000000000000000000000000000000000000000010000000000000000000000000004000000400000000082000000000000000000000000000000000000000100000000000000000010000000000000800000000000000000000000000000000000000000000000",
      "type": "0x2",
      "transactionHash": "0x450d64d4712ef329341d0a5305aa1ec96c0a97583756486b9ffe97b2c0efa26e",
      "transactionIndex": "0xbb",
      "blockHash": "0x6d43977040914be0d5dbd18de67920936096967e6293a29f5e41dfd87e8b83ae",
      "blockNumber": "0x888378",
      "gasUsed": "0x133b1",
      "effectiveGasPrice": "0x10c3ba",
      "from": "0xf8c3c0407f2fa1c449db000f612816641a9fdb8c",
      "to": "0x779877a7b0d9e8603169ddbd7836e478b4624789",
      "contractAddress": null
    }
  ],
  "libraries": [],
  "pending": [],
  "returns": {},
  "timestamp": 1754739983,
  "chain": 11155111,
  "commit": null
}